:1000000071C0000090C000008EC000008CC00000D5
:100010008AC0000088C0000086C0000084C00000C4
:1000200082C0000080C000007EC000007CC00000D4
:100030007AC0000078C0000076C0000074C00000E4
:1000400072C000001CC400006EC000006CC0000044
:100050006AC0000068C0000066C0000064C0000004
:1000600062C00000A7C000005FC000005CC00000CC
:100070005AC0000058C0000056C0000054C0000024
:1000800052C0000050C000004EC000004CC0000034
:100090004AC0000048C0000046C0000044C0000044
:1000A00042C0000040C000003EC000003CC0000054
:1000B0003AC0000038C0000036C0000034C0000064
:1000C00032C0000030C000002EC000002CC0000074
:1000D0002AC0000028C0000026C0000024C0000084
:1000E00022C0000011241FBECFEFD1E2DEBFCDBF82
:1000F00000E00CBF12E0A0E0B2E0ECECF4E200E0C3
:100100000BBF02C007900D92A83BB107D9F710E2D0
:10011000A8EBB2E001C01D92A23AB107E1F70E943C
:1001200016110C9464126CCF1F920F920FB60F929F
:100130000BB60F9211242F933F934F935F936F93BE
:100140007F938F939F93AF93BF93EF93FF93DF932F
:10015000CF930F920F92CDB7DEB78091BA029091F4
:10016000BB02BE016F5F7F4FAE014E5F5F4F78D61F
:10017000813021F489818093C60005C08091C1003F
:100180008F7D8093C1000F900F90CF91DF91FF91F1
:10019000EF91BF91AF919F918F917F916F915F91FF
:1001A0004F913F912F910F900BBE0F900FBE0F906C
:1001B0001F9018951F920F920FB60F920BB60F92C9
:1001C00011242F933F934F935F936F937F938F935C
:1001D0009F93AF93BF93EF93FF93DF93CF930F92D0
:1001E0000F92CDB7DEB78091C0008C7119F407C0B3
:1001F0008091C6008091C00087FDFACF14C0809125
:10020000C60089838091B8029091B9021A82BE011A
:100210006F5F7F4FAE014E5F5F4F20E06DD68A81EA
:10022000882309F02ED30F900F90CF91DF91FF918B
:10023000EF91BF91AF919F918F917F916F915F915E
:100240004F913F912F910F900BBE0F900FBE0F90CB
:100250001F901895DF93CF930F92CDB7DEB76983C8
:100260008091BA029091BB02BE016F5F7F4F20E088
:10027000A5D7813011F080E006C08091C100806276
:100280008093C10081E00F90CF91DF91089580911C
:10029000B8029091B90220E0CAD6811181E0089598
:1002A000DF92EF92FF920F931F937B018C01D42E6C
:1002B0000FB6F8940F92842F61E040E00E94EF099E
:1002C0009093B9028093B8028D2D61E040E00E94C6
:1002D000EF099093BB028093BA0283E0EE0CFF1CFF
:1002E000001F111F8A95D1F760E074E284EF90E05F
:1002F000A80197010E941E122150304040405040FA
:100300003093C5002093C400E0ECF0E0808182606F
:10031000808388E98093C10086E08093C2000F90BB
:100320000FBE80E090E01F910F91FF90EF90DF9063
:10033000089590E08091BC02882309F491E0892F10
:100340000895F5E00F2EF6E01F2EF7E02F2EF8E0CF
:100350003F2EF9E04F2EFAE05F2EFBE06F2EFCE01F
:100360007F2EFDE08F2EFEE09F2EFFE0AF2EF0E10E
:10037000BF2EF1E1CF2EF2E1DF2EF3E1EF2EF4E11B
:10038000FF2E05E116E127E138E149E15AE16BE191
:100390007CE18DE19EE1AFE1B0E2E1E2F5E0F01158
:1003A0000092BC02F6E0F1110092BC02F7E0F211FB
:1003B0000092BC02F8E0F3110092BC02F9E0F411E3
:1003C0000092BC02FAE0F5110092BC02FBE0F611CB
:1003D0000092BC02FCE0F7110092BC02FDE0F811B3
:1003E0000092BC02FEE0F9110092BC02FFE0FA119B
:1003F0000092BC02F0E1FB110092BC02F1E1FC11A1
:100400000092BC02F2E1FD110092BC02F3E1FE1188
:100410000092BC02F4E1FF110092BC02F5E1F0137E
:100420000092BC02F6E1F1130092BC02F7E1F21374
:100430000092BC02F8E1F3130092BC02F9E1F4135C
:100440000092BC02FAE1F5130092BC02FBE1F61344
:100450000092BC02FCE1F7130092BC02FDE1F8132C
:100460000092BC02FEE1F9130092BC02FFE1FA1314
:100470000092BC02F0E2FB130092BC02F1E2FE1318
:100480000092BC025ECFF1E00F2EF2E01F2EF3E0EF
:100490002F2EF4E03F2EF5E04F2EF6E05F2EF7E032
:1004A0006F2EF8E07F2EF9E08F2EFAE09F2EFBE012
:1004B000AF2EFCE0BF2EFDE0CF2EFEE0DF2EFFE0F2
:1004C000EF2EF0E1FF2E01E112E123E134E145E1FD
:1004D00056E167E178E189E19AE1ABE1BCE1EDE168
:1004E000F1E0F0110092BC02F2E0F1110092BC02C6
:1004F000F3E0F2110092BC02F4E0F3110092BC02AE
:10050000F5E0F4110092BC02F6E0F5110092BC0295
:10051000F7E0F6110092BC02F8E0F7110092BC027D
:10052000F9E0F8110092BC02FAE0F9110092BC0265
:10053000FBE0FA110092BC02FCE0FB110092BC024D
:10054000FDE0FC110092BC02FEE0FD110092BC0235
:10055000FFE0FE110092BC02F0E1FF110092BC022C
:10056000F1E1F0130092BC02F2E1F1130092BC023F
:10057000F3E1F2130092BC02F4E1F3130092BC0227
:10058000F5E1F4130092BC02F6E1F5130092BC020F
:10059000F7E1F6130092BC02F8E1F7130092BC02F7
:1005A000F9E1F8130092BC02FAE1F9130092BC02DF
:1005B000FBE1FA130092BC02FCE1FB130092BC02C7
:1005C000FDE1FE130092BC025ECFEF92FF920F930B
:1005D00081EA91E060E072E045E550E020E030E043
:1005E00000E0EE24FF240E94600D83E492E065E0C9
:1005F00072E045E550E020E030E00E94600D0F9190
:10060000FF90EF9008958FE08093A20280EF84B96D
:1006100095B18091A202892385B908950F931F9304
:10062000982F8450843070F401E010E002C0000F75
:10063000111F9A95E2F702D703B985B18093A20200
:100640000E94F30B1F910F9108950F931F93282F72
:10065000062F8450843010F581E090E002C0880FAE
:10066000991F2A95E2F7182FE9D6002359F48091B3
:10067000A202109518231093A20295B18091A202B4
:10068000892309C08091A202182B1093A20295B170
:100690008091A202892B85B90E94F30B1F910F91C3
:1006A0000895FC0191E1908322E2229383E38293F7
:1006B000629372931292129280E882931292129233
:1006C000129282E0829383E0829384E0829385E0B9
:1006D000829386E0829387E0829388E0829389E028
:1006E000829380E18293929382E1829383E1829369
:1006F00084E1829385E1829386E1829387E182930C
:1007000088E1829389E1829380E2829381E28293FD
:10071000229383E282934293529386E2829387E20A
:10072000829388E2829389E2829380E3829381E3D9
:1007300082933197CF0108951092890089EF8093B9
:100740008800109280008BE080938100EFE6F0E05B
:10075000808182608083A0914320B0914420CD911C
:10076000CDBFDD91DEBFFF91EF91DF91CF91BF91C2
:10077000AF919F918F917F916F915F914F913F9139
:100780002F911F910F91FF90EF90DF90CF90BF902E
:10079000AF909F908F907F906F905F904F903F9021
:1007A0002F901F900F900CBE0F900BBE0F900FBE9E
:1007B0000F90089581E008950F920FB6F8940F926C
:1007C0000BB60F920CB60F921F9211242F923F92EC
:1007D0004F925F926F927F928F929F92AF92BF9251
:1007E000CF92DF92EF92FF920F931F932F933F933D
:1007F0004F935F936F937F938F939F93AF93BF9329
:10080000CF93DF93EF93FF93A0914320B0914420C7
:100810000DB60D920EB60D9212D7882309F082D62E
:10082000A0914320B0914420CD91CDBFDD91DEBF9A
:10083000FF91EF91DF91CF91BF91AF919F918F91F8
:100840007F916F915F914F913F912F911F910F91E8
:10085000FF90EF90DF90CF90BF90AF909F908F90E0
:100860007F906F905F904F903F902F901F900F90D0
:100870000CBE0F900BBE0F900FBE0F9008959CDF23
:1008800018950F920FB6F8940F920BB60F920CB604
:100890000F921F9211242F923F924F925F926F926C
:1008A0007F928F929F92AF92BF92CF92DF92EF9200
:1008B000FF920F931F932F933F934F935F936F93E9
:1008C0007F938F939F93AF93BF93CF93DF93EF93D8
:1008D000FF93A0914320B09144200DB60D920EB627
:1008E0000D9220D6A0914320B0914420CD91CDBF50
:1008F000DD91DEBFFF91EF91DF91CF91BF91AF917D
:100900009F918F917F916F915F914F913F912F9127
:100910001F910F91FF90EF90DF90CF90BF90AF901D
:100920009F908F907F906F905F904F903F902F900F
:100930001F900F900CBE0F900BBE0F900FBE0F902C
:100940000895892B41F06BEA70E080E090E04AE086
:1009500052E00C9412110895CF93DF93EC016ED501
:100960008091BF029091C002892B31F482EC92E019
:100970009093C0028093BF022091BD023091BE02CD
:10098000CE01820F931F4DE18B34940770F428172A
:10099000390758F4C091BF02D091C002C20FD31FD3
:1009A0009093BE028093BD0202C0C0E0D0E01BD78E
:1009B000CE01DF91CF910895EF92FF920F931F9395
:1009C000DC011596ED91FC911697E680F780870182
:1009D000045F1F4FC80126D18AE390E2B801D1D04D
:1009E00020E0E0910D20F0910E20D70156969C91C9
:1009F0008689981708F021E0822F1F910F91FF90B0
:100A0000EF9008950F931F93CF93DF93EB01009125
:100A1000102010911120080F191F80910D20909126
:100A20000E200296FFD0E0910D20F0910E2013834E
:100A300002838091102090911120BF016E5F7F4F43
:100A40000817190728F4809138209091392004C0A4
:100A50008091362090913720B3D0209741F060915B
:100A60000D2070910E20645F7F4FCE01A9D0DF91E1
:100A7000CF911F910F910895AF92BF92CF92DF92C5
:100A8000EF92FF920F931F93CF93DF936C01B62EDB
:100A9000A42E8AE190E060DFEC01009711F48FEF63
:100AA00051C080910D2090910E20892BF9F4D093A4
:100AB0000E20C0930D2082E190E24FD08BE190E2B6
:100AC0004CD024E2E22E20E2F22EC70146D00DE205
:100AD00010E2C80142D08AE390E23FD0F092372082
:100AE000E09236201093392000933820EB2CBB2065
:100AF00011F0EE24E394198E188EEE8AAF8AFE016F
:100B0000C192D1928F01CF0138D0CE010C9635D051
:100B1000D987C887DB8BCA8B82E090E08E19910958
:100B20009D878C879E8980910F20891710F4909360
:100B30000F2089E0989FC00111248E5E9F4DB8015F
:100B400020D081E0DF91CF911F910F91FF90EF9026
:100B5000DF90CF90BF90AF900895FC019C012D5F76
:100B60003F4F328321838FEF9FEF948383833683BC
:100B700025833087278310820895FC011186108613
:100B80000895AC01FC01A181B281FB01B383A28372
:100B900014968D919C911597958384831496ED916D
:100BA000FC9115977383628315967C936E931497CB
:100BB000FB0151874087FA0180818F5F8083089510
:100BC000CF93DF939C01EB01488159818FEF4F3F19
:100BD000580721F4F901A781B0850DC0D9011396FA
:100BE0001296ED91FC9113978081918148175907D6
:100BF00010F0DF01F5CF1296ED91FC911397FB8376
:100C0000EA83D583C483BD83AC831396DC93CE93F0
:100C1000129739872887F90180818F5F8083DF9160
:100C2000CF910895CF93DF93DC011896CD91DC919D
:100C3000199712964D915C91139714968D919C91F2
:100C40001597FA019583848314962D913C911597FD
:100C5000F9015383428389819A818A179B0711F492
:100C60003A83298319961C921E9218978881815085
:100C70008883DF91CF9108950F931F93CF93DF93D4
:100C8000EC01042F1A8D4C8D4423C1F10023B1F4E3
:100C90008C819D8150E00E945B128C8D2C813D8166
:100CA000280F311D3D832C838A819B8128173907AA
:100CB00028F1888199819D838C8320C08E819F81BA
:100CC00050E00E945B128C8D90E044275527481B12
:100CD000590B8E819F81840F951F9F838E8328815E
:100CE00039818217930730F48A819B81840F951F85
:100CF0009F838E83023011F4111111501F5F1A8FE0
:100D000080E0DF91CF911F910F910895FC01562F44
:100D1000A72F248D2223B9F086819781820F911D00
:100D200097838683228133818217930720F0808105
:100D3000918197838683448D66817781852F9A2F51
:100D400050E00C945B120895CF93DF93FB01EC010C
:100D5000F8948A8D882369F44115510539F061961C
:100D6000CA01BE014FDE78948CEF2EC0789480E0EB
:100D70002BC07894F8948A8D882329F18C8D2E814C
:100D80003F81280F311D3F832E838A819B81281745
:100D9000390720F0888199819F838E838A8D8150C5
:100DA0008A8F4C8D6E817F81CF0150E00E945B1253
:100DB0008885882339F0CE010896FEDD882311F05E
:100DC0008BEF01C081E07894DF91CF910895CF93AC
:100DD000DF93EC01F8940FB6F8940F928A8D9B8DF7
:100DE0000F900FBE891769F44115510539F0289607
:100DF000CA01BE0107DE78948CEF19C0789480E0B8
:100E000016C07894F8948A8D891710F080E00EC08F
:100E1000CE0140E031DF8989882339F0CE01419647
:100E2000CBDD882311F08BEF01C081E07894DF9156
:100E3000CF910895CF93DF93EC01009741F46FE2D7
:100E400076E080E090E047E352E00E9412110FB696
:100E5000F8940F928A8D0F900FBEDF91CF91089575
:100E6000CF92DF92EF92FF920F931F93CF93DF9376
:100E70007B016A01EC01009741F460EA75E080E0D3
:100E800090E047E352E00E941211E114F10419F4DA
:100E90008C8D882341F51A8D112311F480E01AC03E
:100EA0000D8DCE01B70132DF11501A8F0F3F79F44B
:100EB0008885882371F0CE0108967BD3882349F07A
:100EC000C114D10431F081E0F601808303C00F5FCB
:100ED0000D8F81E0DF91CF911F910F91FF90EF90E7
:100EE000DF90CF90089561EA75E080E090E047E3FD
:100EF00052E00E941211CFCFCF92DF92EF92FF9279
:100F00000F931F93CF93DF937B016A01022FEC01B4
:100F1000009741F46FE973E080E090E047E352E02E
:100F20000E941211E114F10419F48C8D882379F5D3
:100F3000023019F48B8D813099F59A8D8B8D98172D
:100F400020F0023011F080E019C01E8DCE01B701F3
:100F5000402F92DE1F3F79F48989882371F0CE01FA
:100F6000419627D3882349F0C114D10431F081E0A0
:100F7000F601808303C01F5F1E8F81E0DF91CF9158
:100F80001F910F91FF90EF90DF90CF90089560EA4E
:100F900073E080E090E047E352E00E941211C8CF76
:100FA00061EA73E080E090E047E352E00E941211B2
:100FB000C4CFEF92FF921F93CF93DF93EC010FB654
:100FC000F8940F921E8D91E1E92EF12CEC0EFD1E8E
:100FD00009C08989882341F0C701EBD2882309F031
:100FE0003ED211501116ACF38FEF8E8F0F900FBEC3
:100FF0000FB6F8940F921D8D88E0E82EF12CEC0EC0
:10100000FD1E09C08885882341F0C701D2D28823FC
:1010100009F025D211501116ACF38FEF8D8F0F9080
:101020000FBEDF91CF911F91FF90EF9008956F92C7
:101030007F928F929F92AF92BF92CF92DF92EF9268
:10104000FF920F931F93DF93CF9300D00F920F92D5
:10105000CDB7DEB74B015D834C83E22E8C01009748
:1010600041F46CED74E080E090E047E352E00E94D0
:1010700012118114910429F4F801848D882309F058
:1010800094C041E1A42EB12CA00EB11E20E06E014F
:101090000894C11CD11C34E0632E712C6C0E7D1E93
:1010A00001C021E00FB6F8940F92F801F28CFF20F6
:1010B000F9F0C680D780C801B40128DEEE2049F4DB
:1010C000FA94F801F28E8085882371F0C8010896A1
:1010D00007C0F801D782C6828189882329F0C5011B
:1010E00068D2882309F0CDDB0F900FBE81E049C0A4
:1010F0008C819D81892B21F40F900FBE80E041C02F
:10110000222311F4C601AFD10F900FBE97D10FB6B5
:10111000F8940F92F801858D8F3F09F4158EF80130
:10112000868D8F3F09F4168E0F900FBEC601B30156
:10113000B2D18823C9F40FB6F8940F92F801828DCA
:101140000F900FBE882361F46C817D81C50199D415
:10115000C8012FDF48D3882309F0A3CF92DBA1CFAA
:10116000C80127DF40D39DCFC80123DF3CD30FB692
:10117000F8940F92F801828D0F900FBE882309F02A
:1011800090CF0F900F900F900F900F90CF91DF9115
:101190001F910F91FF90EF90DF90CF90BF90AF9095
:1011A0009F908F907F906F9008956DED74E080E038
:1011B00090E047E352E00E94121163CF6F927F925A
:1011C0008F929F92AF92BF92CF92DF92FF920F9336
:1011D0001F93DF93CF9300D00F920F92CDB7DEB75E
:1011E0006B015D834C83F22E8C01009741F469ED15
:1011F00072E080E090E047E352E00E941211C114D7
:10120000D10429F4F801848D882309F08EC0F2E01E
:10121000FF1629F4F801838D813009F08EC068E053
:10122000A62EB12CA00EB11E20E04E010894811C08
:10123000911C54E0652E712C6C0E7D1E01C021E0C6
:101240000FB6F8940F92F801928D838D981718F0CD
:10125000F2E0FF16B1F4C801B6014F2D0DDD982F55
:10126000F8018189882331F0C8014196A2D18823F1
:1012700021F002C0992309F004DB0F900FBE81E03A
:1012800041C08C819D81892B19F40F900FBE39C00C
:10129000222311F4C401E7D00F900FBECFD00FB6B8
:1012A000F8940F92F801858D8F3F09F4158EF8019F
:1012B000868D8F3F09F4168E0F900FBEC401B301C7
:1012C000EAD08823D9F40FB6F8940F92F801928DE2
:1012D0000F900FBEF801838D981761F46C817D81AA
:1012E000C501CFD3C80165DE7ED2882309F0A7CF20
:1012F000C8DAA5CFC8015DDE76D2A1CFC80159DE1C
:1013000072D280E00F900F900F900F900F90CF91BE
:10131000DF911F910F91FF90DF90CF90BF90AF9022
:101320009F908F907F906F9008956AED72E080E0BB
:1013300090E047E352E076D76ACF6BED72E080E051
:1013400090E047E352E06ED76ACF1F93CF93DF93CD
:10135000162FEC01009739F46BE171E080E090E02A
:1013600047E352E05FD70FB6F8940F926C8D2B8D48
:10137000629FC001112448815981840F951F9B836E
:101380008A831A8E5D834C8330E02150304070E0B8
:10139000269FC001279F900D369F900D1124480F66
:1013A000591F5F834E838FEF8D8F8E8F112351F4E2
:1013B0008885882369F0CE010896FBD0882341F008
:1013C00060DA06C0CE010896C8DBCE014196C5DBC7
:1013D0000F900FBE81E0DF91CF911F9108950F9381
:1013E0001F93CF93DF93082F162F882339F468E8D3
:1013F00071E080E090E047E352E014D7112319F444
:1014000080E090E003C0109FC00111244F96A4DA41
:10141000EC01009769F0112319F49983888303C0C4
:101420004F96998388830B8F1C8FCE0161E08DDFEF
:10143000CE01DF91CF911F910F91089580914520AA
:101440008F5F8093452008950FB6F8940F922091F6
:101450004820309149200F900FBEC901089581E0C6
:10146000809347200895CF93DF93EC01009739F4E0
:1014700061EC7BE080E090E042E552E0D3D68091E1
:101480004C20888380914820909149209A838983B9
:10149000DF91CF9108950F931F93CF93DF93EC01CA
:1014A0008B01009739F46BEC7BE080E090E042E543
:1014B00052E0B8D60115110539F46CEC7BE080E000
:1014C00090E042E552E0AED60FB6F8940F9240910C
:1014D00048205091492090914C208881981729F0FC
:1014E00089819A8148175907A8F429813A81F8011E
:1014F00060817181CA01821B930B8617970750F494
:10150000241B350B260F371F31832083CE01ABDF21
:1015100080E001C081E00F900FBEDF91CF911F915D
:101520000F9108950F931F9380914520882321F0F8
:1015300081E0809347203AC01092472010914620C6
:1015400009E00AC0112339F466EF7AE080E090E008
:1015500042E552E067D61150109FD0011124AD5AD8
:10156000BF4D8C91882371F31196ED91FC911297E8
:101570000280F381E02D1296FC93EE931197CD013A
:101580000396E817F90731F48281938112969C93B0
:101590008E9311971196ED91FC9112978681978108
:1015A0009093442080934320109346201F910F91E5
:1015B00008950F931F93CF93DF93DC011596ED9160
:1015C000FC911697C681D781209739F461E67BE0BC
:1015D00080E090E042E552E025D68E01045F1F4F87
:1015E000C80120DB80914520882399F48E010E5F8D
:1015F0001F4FC80117DB9E8980914620891710F480
:101600009093462089E0989FC00111248D5A9F4DE8
:1016100002C08DE890E2B801B4DAE0914320F09185
:1016200044209E898689891710F080E003C081E0FC
:1016300080934720DF91CF911F910F910895CF9212
:10164000DF92EF92FF920F931F93CF93DF938091DE
:101650004520882309F0B1C000914820109149200D
:101660000F5F1F4F1093492000934820011511056B
:10167000E9F5E0918920F0918A208081882339F072
:1016800069ED79E080E090E042E552E0CBD5209131
:10169000892030918A2080918B2090918C2090938A
:1016A0008A208093892030938C2020938B208091F6
:1016B0004C208F5F80934C20E0918920F0918A200C
:1016C0008081882319F48FEF9FEF0CC0E09189206F
:1016D000F0918A200580F681E02D0680F781E02DCB
:1016E0008281938190934B2080934A2080914A205D
:1016F00090914B200817190708F448C0DD2449E0F1
:10170000C42EE0918920F0918A208081882319F4E9
:101710008FEF9FEF0EC0E0918920F0918A20058025
:10172000F681E02DC681D7818A819B810817190730
:1017300028F490934B2080934A2029C032E0E32E76
:10174000F12CEC0EFD1EC7016DDA8C899D89892B69
:1017500019F0CE010C9666DA9E8980914620891791
:1017600010F4909346209C9DC00111248D5A9F4DEA
:10177000B70107DAE0914320F09144209E898689E1
:10178000981708F4BECFDD24D394BBCFDD24E091BD
:101790004320F0914420868990E0FC0123E0EE0F85
:1017A000FF1F2A95E1F7E80FF91FED5AFF4D8081E1
:1017B000823048F0DD24D39406C080914D208F5FA5
:1017C00080934D20DD2480914720882311F0DD2473
:1017D000D3948D2DDF91CF911F910F91FF90EF90BA
:1017E000DF90CF900895EF92FF920F931F93CF93C6
:1017F000DF9380914520882339F468EE77E080E01C
:1018000090E042E552E00ED50FB6F8940F92809129
:10181000452081508093452080914520882309F000
:1018200068C080914E20882309F463C0C0E0D0E0F6
:1018300059E0E52EFF24F39426C0E0919220F09128
:101840009320C681D781CE010C96ECD98E010E5F14
:101850001F4FC801E7D99E8980914620891710F44F
:10186000909346209E9DC00111248D5A9F4DB80132
:1018700088D9E0914320F09144209E898689981769
:1018800010F0F092472080918D208823B1F6CD2B67
:10189000D1F0E0918920F0918A208081882319F489
:1018A0008FEF9FEF0CC0E0918920F0918A20058096
:1018B000F681E02D0680F781E02D8281938190935F
:1018C0004B2080934A2010914D20112351F001E0CC
:1018D000B6DE882311F0009347201150C9F710920B
:1018E0004D2080914720882321F00E94410481E00F
:1018F00001C080E00F900FBEDF91CF911F910F913B
:10190000FF90EF90089580915320823018F00E944C
:101910004104F9CFFFCF0F931F93CF93DF93EC01D7
:1019200000914820109149208091432090914420BB
:10193000029678D9C00FD11FE0914320F091442046
:10194000D383C283C017D10760F480918B2090911C
:101950008C2060914320709144206E5F7F4F30D97E
:1019600016C08091892090918A20609143207091C7
:1019700044206E5F7F4F24D980914A2090914B2064
:10198000C817D90720F4D0934B20C0934A20DF9189
:10199000CF911F910F910895CF93DF93EC010097A2
:1019A000B1F080914520882339F06FEC74E080E03D
:1019B00090E042E552E036D4809145208F5F8093DD
:1019C0004520CE0160E0A7DF0EDF882311F40E94DE
:1019D0004104DF91CF9108950F931F93CF93DF932D
:1019E000EC018B01009739F469E774E080E090E046
:1019F00042E552E017D40115110539F46AE774E0A5
:101A000080E090E042E552E00DD4809145208823AB
:101A100039F06BE774E080E090E042E552E002D4F8
:101A2000809145208F5F80934520409148205091C0
:101A3000492028813981B901600F711F421753076E
:101A400028F46217730728F080E008C06217730754
:101A500020F080E04617570708F481E07983688317
:101A6000882329F0CB01841B950B60E054DFBBDE9B
:101A7000882311F40E944104DF91CF911F910F91AF
:101A800008950F931F93CF93DF93EC018B01009781
:101A900039F466E07BE080E090E042E552E0C2D3BA
:101AA0006091432070914420645F7F4FCE0188D8BD
:101AB000C80161E030DFDF91CF911F910F91089550
:101AC0004F925F926F927F928F929F92AF92BF924E
:101AD000CF92DF92EF92FF920F931F93CF93DF93FA
:101AE0002C01162F972E6A0139015701CA010E9455
:101AF000AC047C01009799F086E290E00E94AC046F
:101B0000EC01009749F0F88EEF8A812F992D9C0106
:101B1000F901DE0190E005C0C7010E94A1048FEF2A
:101B2000B1C0808159968C9359978081882329F080
:101B30009F5F319611969830A1F718A2043008F0F3
:101B400003E00E8B72E0872E912C8C0E9D1EC4013B
:101B500014D8CE010C9611D8D987C88784E090E0BC
:101B6000801B91099D878C87DB8BCA8B19A21AA2D7
:101B70001BA21CA21DA20894C108D108C7018C0D8C
:101B80009D1DB201A3010E94510399838883A11472
:101B9000B10419F0F501D183C0830FB6F8940F9208
:101BA00080914E208F5F80934E20809143209091B2
:101BB0004420892B89F5D0934420C0934320809101
:101BC0004E208130C9F583E590E20E94AD058CE599
:101BD00090E20E94AD0585E690E20E94AD058EE69A
:101BE00090E20E94AD0567E7E62E60E2F62EC7019F
:101BF0000E94AD0500E810E2C8010E94AD058DE825
:101C000090E20E94AD05F0928A20E0928920109324
:101C10008C2000938B2010C080914F20882361F48A
:101C2000E0914320F091442096898E89891720F015
:101C3000D0934420C0934320809152208F5F8093A3
:101C400052209E8980914620891710F49093462057
:101C500089E0989FC00111248D5A9F4DB4010E94C4
:101C6000C1050F900FBE80914F20882351F0E09165
:101C70004320F091442096898E89981710F40E9491
:101C8000410481E0DF91CF911F910F91FF90EF9080
:101C9000DF90CF90BF90AF909F908F907F906F908C
:101CA0005F904F900895EF92FF920F9383E89CE02E
:101CB0006DE672E045E550E020E030E000E0E0E570
:101CC000EE2EE0E2FE2EFCDE813089F4F8948FEFF8
:101CD0009FEF90934B2080934A2081E080934F2088
:101CE00010924920109248200E949C0309C08F3F07
:101CF00039F464E877E080E090E042E552E092D287
:101D00000F91FF90EF90089580919620882321F005
:101D100080919720811181E0109296201092972057
:101D20000895EF92FF920F931F93182F8AE062E0BD
:101D300040E055DB9093992080939820892BA9F05F
:101D400085EF9EE062E772E045E550E028E930E289
:101D5000012FEE24FF24B4DE8AEB9EE06AE772E0F6
:101D600045E550E028E930E2ABDE1F910F91FF908E
:101D7000EF900895CF92DF92EF92FF920F931F930F
:101D8000DF93CF930F920F92CDB7DEB77C011A820B
:101D9000198200E010E06E010894C11CD11C1EC025
:101DA000F70180819181B60140E050E020E006DA41
:101DB000813011F001E011C0002351F40FB6F89406
:101DC0000F92809197208F5F809397200F900FBE86
:101DD00089819A8101969A8389831F5F133004F366
:101DE00088EC90E0D9DD10E0DBCF9F92AF92BF92FC
:101DF000CF92DF92EF92FF920F931F93DF93CF93D7
:101E00000F920F92CDB7DEB7982EC92EEE24FF2485
:101E1000DD245E010894A11CB11C22C0F801808160
:101E20009181B50140E050E020E001D98130C1F45A
:101E300029813A812E153F0519F0DD24D3940CC079
:101E4000DD2051F40FB6F8940F92809196208F5FA9
:101E5000809396200F900FBE79010894E11CF11C2D
:101E6000092D1C2DF801808191810E941A07882379
:101E7000A9F684EB90E090DDF3CF80919A20109248
:101E80009A20811181E00895EF92FF920F931F93A2
:101E9000182F20939B20CB01BA0148E10E945001EA
:101EA000012F01508FEA9FE062E872E045E550E0C3
:101EB00020E030E0EE24FF2403DE8CE69FE068E8BB
:101EC00072E045E550E020E030E0012FF9DD1F91A0
:101ED0000F91FF90EF900895EF92FF920F931F9351
:101EE000DF93CF930F92CDB7DEB700E07E01089469
:101EF000E11CF11C11E480E090E0B7014FEF5FEFCF
:101F00000E944701882351F08981811711F011E067
:101F100009C080919B208F5F0E940E031F5F1935BF
:101F200051F710E080919B208F5F60E00E942503B5
:101F3000113069F407C080E090E0B7014FEF5FEF28
:101F40000E94470189818835B1F70F5FD3CF0230F6
:101F50008CF680919A208F5F80939A20CBCF1F932D
:101F600011E40EC080E090E0612F40E050E00E945C
:101F70002A01813021F480919B200E940E031F5F73
:101F8000193584F380919B2060E00E9425035CDA80
:101F9000039666E970E03ED28233910510F482E345
:101FA00090E0FADC11E4DECF0F931F93082F893005
:101FB00008F008E081E061E040E011DA90939D20B4
:101FC00080939C20892B89F010E007C08FE390E17B
:101FD00060E0412F0E943C051F5F1017B8F388EFA7
:101FE0009FE061E040E00E943C051F910F91089541
:101FF0000F931F93DF93CF930F92CDB7DEB78C0172
:10200000FC01808D918DF1E0823C9F07B1F021E0D1
:10201000833C920751F1892B61F580919C2090912E
:102020009D20BE016F5F7F4F4FEF5FEF0E94A406C0
:102030008C3F71F482EC91E00FC080919C209091D4
:102040009D20BE016F5F7F4F40E050E00E94A406DC
:102050008B3F31F483EC91E0F801918F808F09C0C0
:10206000813019F01092A302D8CF89810E940E030B
:10207000D4CF0F90CF91DF911F910F9108950F93BF
:102080001F93DF93CF930F92CDB7DEB769838C0197
:10209000FC01808D918DF1E082389F07F1F021E005
:1020A0008338920718F4892B41F03EC0E1E0833871
:1020B0009E0739F186599140B9F580919C20909105
:1020C0009D20BE016F5F7F4F40E050E00E94E70619
:1020D0008C3F71F482E891E024C080919C20909123
:1020E0009D20BE016F5F7F4F40E050E00E94E706F9
:1020F0008B3F19F483E891E014C0813011F0109205
:10210000A302E981F0E0EE0FFF1FE855FD4F80814B
:102110009181009721F060E070E00E94020586E95D
:1021200091E0F801918F808F0F90CF91DF911F91F7
:102130000F9108959F92AF92BF92CF92DF92EF924C
:10214000FF920F931F93DF93CF9300D00F92CDB7E1
:10215000DEB78C01EE24FF249BE7A92EB12CC12C05
:10216000D12C9924939403C081E0E82EF12CA9820C
:10217000BA82CB82DC8289819A81AB81BC81895B06
:102180009B46AC4FBF4F89839A83AB83BC836981E5
:102190007A818B819C812DEF3FEF4FEF5FEF1BD159
:1021A00069837A838B839C8369817A818B819C810B
:1021B00027E030E040E050E063D1C901DA018983D3
:1021C0009A83AB83BC8389819A81AB81BC818B511B
:1021D0009747AE4FBF4F41F6E114F10409F0C4CF69
:1021E0000FB6F8940F92F80190820F900FBEBFCFF8
:1021F00080919E2010929E20811181E00895EF929F
:10220000FF920F93082F8AE990E16EE872E045E5AE
:1022100050E02EE930E2EE24FF2452DC0F91FF90D3
:10222000EF90089587E061E00C942503EF92FF9210
:102230000F9381E061E040E0D2D89093A02080939A
:102240009F200E94030380919F209091A020892BC2
:10225000B1F089EC91E166E972E045E550E022E2F7
:1022600030E002E0EE24FF242BDC8DE991E169E906
:1022700072E045E550E021E131E101E021DC80E060
:10228000BEDF82E040E052EC61E070E025E0FCDD82
:1022900082E047DD0E94E50281E691E16CE972E0AF
:1022A00045E550E020E030E003E0EE24FF2408DCC8
:1022B00083E07ADEF8DC80E090E00F91FF90EF9011
:1022C00008951F9311E088EB9BE066DB2091A40248
:1022D0003091A5024091A6025091A702DA01C901EE
:1022E000880F991FAA1FBB1F820F931FA41FB51F22
:1022F0008093A4029093A502A093A602B093A70294
:1023000077DF813011F01093A120B7DD813011F01B
:102310001093A120F9DC813011F01093A1200E94CC
:102320009901813011F01093A1208091A120882380
:1023300051F684E00E940E03C6CFEF92FF920F93F6
:102340001F93DF93CF9300D0CDB7DEB724E6298368
:102350008151914121F087E061E00E94250374D80A
:102360009B838A8372E0E72EF12CEC0EFD1E8E011A
:102370000F5F1F4FC70168EC70E02EDB80919F203C
:102380009091A020B80140E050E020E00E94DE08DB
:10239000F1CF0F931F93DF93CF930F92CDB7DEB79B
:1023A000829721F087E061E00E9425038E010F5F94
:1023B0001F4F80919F209091A020B8014FEF5FEFB9
:1023C00020E00E9417088981843699F786E00E94F0
:1023D0000E031982EECF629FD001739FF001829F9E
:1023E000E00DF11D649FE00DF11D929FF00D839FA4
:1023F000F00D749FF00D659FF00D9927729FB00D41
:10240000E11DF91F639FB00DE11DF91FBD01CF0153
:1024100011240895AA1BBB1B51E107C0AA1FBB1FB3
:10242000A617B70710F0A61BB70B881F991F5A9560
:10243000A9F780959095BC01CD010895A1E21A2ECF
:10244000AA1BBB1BFD010DC0AA1FBB1FEE1FFF1F58
:10245000A217B307E407F50720F0A21BB30BE40BA8
:10246000F50B661F771F881F991F1A9469F76095EF
:102470007095809590959B01AC01BD01CF010895A9
:1024800097FB092E05260ED057FD04D0D7DF0AD0C2
:10249000001C38F450954095309521953F4F4F4F93
:1024A0005F4F0895F6F790958095709561957F4FF1
:1024B0008F4F9F4F0895FB01DC0102C001900D92E8
:0C24C00041505040D8F70895F894FFCF29
:1024CC00526567310052656732002E2E2F467265B9
:1024DC006552544F532F536F757263652F706F7223
:1024EC007461626C652F4D656D4D616E672F68650B
:1024FC0061705F312E63002E2E2F4672656552542B
:10250C004F532F536F757263652F71756575652EFB
:10251C0063002E2E2F4672656552544F532F536F06
:10252C00757263652F7461736B732E630049444C31
:10253C00450051436F6E734E42005150726F644EA2
:10254C004200434F4D547800434F4D527800496E32
:10255C00744D6174680052580054580043686563A8
:10256C006B000F01030000009600C800FA002C015C
:08257C005E019001C201F401AF
:00000001FF
